{
  "_format": "hh-sol-artifact-1",
  "contractName": "GoodContract",
  "sourceName": "contracts/GoodContract.sol",
  "abi": [
    {
      "inputs": [],
      "name": "addBalance",
      "outputs": [],
      "stateMutability": "payable",
      "type": "function"
    },
    {
      "inputs": [
        {
          "internalType": "address",
          "name": "",
          "type": "address"
        }
      ],
      "name": "balances",
      "outputs": [
        {
          "internalType": "uint256",
          "name": "",
          "type": "uint256"
        }
      ],
      "stateMutability": "view",
      "type": "function"
    },
    {
      "inputs": [],
      "name": "withdraw",
      "outputs": [],
      "stateMutability": "nonpayable",
      "type": "function"
    }
  ],
  "bytecode": "0x608060405234801561001057600080fd5b506104bb806100206000396000f3fe6080604052600436106100345760003560e01c806327e235e3146100395780633ccfd60b14610076578063b163cc381461008d575b600080fd5b34801561004557600080fd5b50610060600480360381019061005b9190610297565b610097565b60405161006d919061034a565b60405180910390f35b34801561008257600080fd5b5061008b6100af565b005b61009561022b565b005b60006020528060005260406000206000915090505481565b60008060003373ffffffffffffffffffffffffffffffffffffffff1673ffffffffffffffffffffffffffffffffffffffff16815260200190815260200160002054116100fa57600080fd5b60003373ffffffffffffffffffffffffffffffffffffffff166000803373ffffffffffffffffffffffffffffffffffffffff1673ffffffffffffffffffffffffffffffffffffffff1681526020019081526020016000205460405161015e90610315565b60006040518083038185875af1925050503d806000811461019b576040519150601f19603f3d011682016040523d82523d6000602084013e6101a0565b606091505b50509050806101e4576040517f08c379a00000000000000000000000000000000000000000000000000000000081526004016101db9061032a565b60405180910390fd5b60008060003373ffffffffffffffffffffffffffffffffffffffff1673ffffffffffffffffffffffffffffffffffffffff1681526020019081526020016000208190555050565b346000803373ffffffffffffffffffffffffffffffffffffffff1673ffffffffffffffffffffffffffffffffffffffff16815260200190815260200160002060008282546102799190610381565b92505081905550565b6000813590506102918161046e565b92915050565b6000602082840312156102a957600080fd5b60006102b784828501610282565b91505092915050565b60006102cd601483610370565b91506102d882610442565b602082019050919050565b60006102f0600083610365565b91506102fb8261046b565b600082019050919050565b61030f81610409565b82525050565b6000610320826102e3565b9150819050919050565b60006020820190508181036000830152610343816102c0565b9050919050565b600060208201905061035f6000830184610306565b92915050565b600081905092915050565b600082825260208201905092915050565b600061038c82610409565b915061039783610409565b9250827fffffffffffffffffffffffffffffffffffffffffffffffffffffffffffffffff038211156103cc576103cb610413565b5b828201905092915050565b60006103e2826103e9565b9050919050565b600073ffffffffffffffffffffffffffffffffffffffff82169050919050565b6000819050919050565b7f4e487b7100000000000000000000000000000000000000000000000000000000600052601160045260246000fd5b7f436f756c646e27742073656e6420657468657221000000000000000000000000600082015250565b50565b610477816103d7565b811461048257600080fd5b5056fea26469706673582212202ce0062c02f26306df67aa0048cbb3e322b6eccd6dcd2266b52722389106c04e64736f6c63430008040033",
  "linkReferences": {},
  "deployedLinkReferences": {}
}